:020000040800F2
:10000000B8550120D503000807270008A31E0008E3
:1000100005270008631D0008B9360008000000002D
:1000200000000000000000000000000015030008B0
:100030007D1D0008000000007103000879320008EF
:10004000EF030008EF030008EF0300085D2F00082E
:10005000EF030008EF030008EF030008EF030008B8
:10006000EF030008EF030008EF030008EF030008A8
:10007000EF030008EF030008EF030008EF03000898
:10008000EF030008EF030008EF030008EF03000888
:10009000EF030008EF030008EF030008EF03000878
:1000A000EF030008EF030008EF030008EF03000868
:1000B000EF030008EF030008EF030008EF03000858
:1000C000EF030008EF030008EF030008EF03000848
:1000D000EF0300089D340008EF030008E534000832
:1000E000EF030008EF030008EF030008EF03000828
:1000F000EF030008EF030008EF030008EF03000818
:10010000EF030008EF030008EF030008EF03000807
:10011000EF030008EF030008EF030008EF030008F7
:10012000EF030008EF030008EF030008EF030008E7
:10013000EF030008EF030008EF030008EF030008D7
:10014000EF030008EF030008EF030008EF030008C7
:10015000EF030008EF030008EF030008EF030008B7
:10016000EF030008EF030008EF030008EF030008A7
:10017000EF030008EF030008EF030008EF03000897
:10018000EF030008EF03000800F002F800F0B2F8F7
:100190000AA090E8000C82448344AAF10107DA45E2
:1001A00001D100F0A7F8AFF2090EBAE80F0013F082
:1001B000010F18BFFB1A43F00103184704BD0000EC
:1001C00024BD00000A444FF0000C10F8013B13F06E
:1001D000070408BF10F8014B1D1108BF10F8015BA0
:1001E000641E05D010F8016B641E01F8016BF9D193
:1001F00013F0080F1EBF10F8014BAD1C0C1B09D1EA
:100200006D1E58BF01F801CBFAD505E014F8016B5B
:1002100001F8016B6D1EF9D59142D6D370470000ED
:100220000023002400250026103A28BF78C1FBD8FF
:10023000520728BF30C148BF0B6070476E2900F0DD
:100240009684702900F0FF8166290AF00E806529E6
:100250000AF00B8067290AF008806129AFF300805B
:1002600003681B0A28BF41F08001692900F07081F2
:10027000642900F06D81752900F06A816F2900F012
:100280009C87782900F0CB81E92900F03787E429A1
:1002900000F03487F52900F03187EF2900F09987C5
:1002A000F82900F0CA810368DB0928BF41F080010A
:1002B000632900F0A686732900F0AB86E32901F0DC
:1002C0005D80F32901F06280002070471FB509F0BE
:1002D000C2FF00F0BBFF04000020002109F036FA45
:1002E000401C60600020002109F01AFAE0601FBD88
:1002F00010B510BD01F0E8F81146FFF7E7FF06F072
:1003000097F901F00FF903B4FFF7F2FF03BC03F014
:1003100032FF00002C4B19680868B0E8F04F80F3FA
:100320000988BFF36F8F4FF0000080F3118870478A
:100330000000000008480068006880F308884FF05B
:10034000000080F3148862B661B6BFF34F8FBFF32D
:100350006F8F00DF00BF00BF08ED00E0DFF80C008A
:10036000016841F470010160704700BF88ED00E052
:10037000EFF30980BFF36F8F134B1A681EF0100F55
:1003800008BF20ED108A20E9F04F106009B44FF04B
:10039000500080F31188BFF34F8FBFF36F8F08F0C9
:1003A0007BFA4FF0000080F3118809BC19680868D7
:1003B000B0E8F04F1EF0100F08BFB0EC108A80F3C9
:1003C0000988BFF36F8F7047C0020020EFF30580EC
:1003D000704700000948804709480047FEE7FEE7EC
:1003E000FEE7FEE7FEE7FEE7FEE7FEE7FEE7FEE7E5
:1003F00004480549054A064B70470000A53200082D
:1004000089010008B8350120B8550120B845012000
:10041000B8450120704710B54C1084EA530404D548
:100420004042C1F1000138BF491E1B4204D552426F
:10043000C3F1000338BF5B1E00F0ACFA14F0804F2C
:1004400004D04042C1F1000138BF491E14F0004FF2
:1004500004D05242C3F1000338BF5B1E10BD000040
:100460000A46014900F0DABDAC0200200FB404498D
:1004700010B503AA029800F0D1FD10BC5DF814FB82
:10048000AC0200200FB41CB5084B06AA7B44694699
:100490000090059800F093FD04460020694600F0A6
:1004A000A1FD20461CBC5DF814FB0000550B0000AC
:1004B00070B5044685690068C10601D5302600E0A4
:1004C0002026C00707D070BDD4E9012130469047EF
:1004D000206A401C20626D1EF6D570BD70B50446C2
:1004E00085690078C00707D170BDD4E901212020BB
:1004F0009047206A401C20626D1EF6D570BD70B515
:100500000C460546012A05D02878800600D5EA6900
:10051000002302E0012305E05B1C934202D2E05C71
:100520000028F9D1A869E618C01AA861286A1844F9
:1005300028622846FFF7BCFF04E0D5E9012114F842
:10054000010B9047B442F8D32846FFF7C7FF70BDB0
:100550002DE9F0410646002410687529314616A59C
:1005600010D000F099FA002802DA404213A507E003
:1005700031688A0701D512A502E0490704D511A503
:10058000012401E000F091FA00210A2206F124077B
:1005900009E0B0FBF2FCB0FBF2F302FB1C003030D0
:1005A00078541846491C0028F3D123462A46304681
:1005B000BDE8F04100F082BA000000002D0000000C
:1005C0002B00000020000000F0B40D460188090552
:1005D00002D5214C7C4402E01F4C7C440E340021A7
:1005E00000F1240608E002F00F071209E75D42EA75
:1005F00003721B097754491C52EA0307F3D10278AE
:100600000023120704D5702D06D009B1022311343E
:100610002246F0BC00F052BA01231034F8E770B55E
:1006200004460D462146106800F03FFA024629466E
:100630002046BDE870400023C6E7D21D22F0070324
:10064000D3E90023C0E70368126843F02003036086
:100650000823C3610023B7E786B600002DE9F05FE9
:10066000894604464FF0000ADFF874B1FB44C0F835
:1006700020A02046E1688847002874D0252806D0AD
:10068000D4E901219047206A401C2062F1E700264E
:100690005F462046E16888472028054607DB312D64
:1006A00005D2781910F8200C08B10643F1E7B0071D
:1006B00001D526F00406C4F81CA00027C4F818A031
:1006C0002A2D09D0284603F04FFD38B304EB8708E4
:1006D000303DC8F8185019E059F8041B204604EBC7
:1006E00087029161E1688847012F054618D1E069CA
:1006F000002820DA26F020061DE0D8F8180000EBCC
:10070000800005EB40003038C8F818002046E1684A
:100710008847054603F028FD0028EED1012F0AD0B6
:100720002E2D08D12046E16888477F1C0546022F00
:1007300046F02006C4DBA069002803DA404246F0F8
:100740000106A061F00701D026F010066C2D0BD039
:10075000682D09D04C2D39D06A2D35D0742D35D067
:100760007A2D33D016E038E0E1682F4620468847DE
:10077000B842054609D16C2F26D04FF48060E1685D
:10078000064320468847054604E06C2F1AD04FF4F4
:10079000807006430DB3A5F14100192802D8203519
:1007A00046F400664A462946204626604E46FFF734
:1007B00045FD80B101280BD0F61D26F0070000F1A1
:1007C000080956E74020E4E78020D8E70020D6E774
:1007D00006F104094DE7284652E7206ABDE8F09F7C
:1007E00016B6000030B505460B462A4613F8014BF5
:1007F00012F8010B08B1A042F8D01CB1002802D0B9
:100800006D1CF1E7284630BD40EA010310B59B0797
:100810000FD1042A0DD310C808C9121F9C42F8D06A
:1008200020BA19BA884201D9012010BD4FF0FF301B
:1008300010BD1AB1D30703D0521C07E0002010BD31
:1008400010F8013B11F8014B1B1B07D110F8013BBD
:1008500011F8014B1B1B01D1921EF1D1184610BD9E
:10086000032A40F2308010F0030C00F0158011F8DC
:10087000013BBCF1020F624498BF11F801CB00F8B4
:10088000013B38BF11F8013BA2F1040298BF00F808
:1008900001CB38BF00F8013B11F0030300F0A48442
:1008A000083AC0F0088051F8043B083A51F804CBEC
:1008B000A0E80810F5E7121D5CBF51F8043B40F8B2
:1008C000043BAFF30080D20724BF11F8013B11F8BD
:1008D00001CB48BF11F8012B24BF00F8013B00F801
:1008E00001CB48BF00F8012B704702F0FF0343EA39
:1008F000032242EA024200F002B84FF0000204294B
:10090000C0F0128010F0030C00F01B80CCF1040C3E
:10091000BCF1020F18BF00F8012BA8BF20F8022B72
:10092000A1EB0C0100F00DB85FEAC17C24BF00F818
:10093000012B00F8012B48BF00F8012B70474FF046
:10094000000200B5134694469646203922BFA0E81F
:100950000C50A0E80C50B1F12001BFF4F7AF09072B
:1009600028BFA0E80C5048BF0CC05DF804EB89001C
:1009700028BF40F8042B08BF704748BF20F8022B5F
:1009800011F0804F18BF00F8012B70477047704777
:100990007047704753EA020C00F069802DE9F04B74
:1009A0004FF00006002B1FBFB3FA83F503FA05F4DE
:1009B00024FA05F65E4012BF1643B2FA82F502FA37
:1009C00005F4C5F120051EBF22FA05FC44EA0C041B
:1009D000203556EA044C4FEA144418BF641C4FF00B
:1009E00000084FF00009904271EB030C39D3002945
:1009F00019BFB1FA81F701FA07F6B0FA80F700FAE9
:100A000007F6C7F120071EBF20FA07FC46EA0C06CE
:100A10002037B6FBF4FCA7EB0507103F07F01F0BD0
:100A2000CBF120060CFA0BFB2CFA06F644BFB346BA
:100A30000026202FA4BF5E464FF0000B5BEA060C99
:100A400008BF4FF0010B19EB0B09ABFB027C48EB25
:100A50000608C01B06FB02CC0BFB03CC71EB0C01A0
:100A6000C1E70B46024641464846BDE8F08B13B548
:100A70004FF000004FF00001AFF30080BDE81C40D4
:100A8000704710B500F0E6FB006810BD10B50446D5
:100A900000F0E0FB046010BD09684A0501D540B2D2
:100AA0007047C905FCD500B2704709684A0501D5F1
:100AB000C0B27047C905FCD580B270472DE9F04738
:100AC0000D4699469246044600F1240801688806BE
:100AD00004D5E06921F01001216000E00120A84266
:100AE00001DD471B00E00027A1697A1902EB09002C
:100AF000081AA0612078C00602D42046FFF7D8FC6F
:100B0000002608E0D4E901211AF806009047206A7F
:100B1000401C761C20624E45F4DB2078C0060AD5C6
:100B20002046FFF7C5FC06E0D4E9012130209047BC
:100B3000206A401C2062381EA7F10107F4DC07E0A0
:100B4000D4E9012118F805009047206A401C206272
:100B5000281EA5F10105F3DC2046FFF7BFFC207835
:100B6000000602D50220BDE8F0870120FBE71168EE
:100B70000268006A530501D508700AE0D30501D563
:100B8000088006E0130603D5C217C1E9000200E0A1
:100B900008600120704770472DE9FF4F0C461E4644
:100BA0004FF0FF378BB0D2E90001DDF860800A908A
:100BB0008A46C1F30A5505B93D46002108464FF063
:100BC0000000BAF1000F00F4400005DA00EB8000ED
:100BD0004FF4400101EA50004FEA9059B9F1010F7A
:100BE00000DDB9460A9850EA4A000ED044F610508B
:100BF000A5F2FF3545432F14B8F1000F1ED0754202
:100C0000291E1EDDC9F100021CE0B8F1010F4FF0F2
:100C1000000001D0302103E0F24305E02154401CE4
:100C2000B042FBDB30460022002121540B99C1F871
:100C30000880C1E900200FB0BDE8F08FBD1B6D1C1E
:100C4000DEE74A4600DA694206A800F0A3FB06ABDD
:100C500093E8070003AB83E8070050460A9900F0C9
:100C6000ABFC8DE80700A0F500501F3800900398FA
:100C7000002D0ADD42F21F014A460844002303A961
:100C80000390684600F014FF09E0A0F500504A46C2
:100C90001F38002303A90390684600F01EFF8DE86B
:100CA00007000004000C03D04FF0FF30410800E0C3
:100CB0001046B8F1000F03D00022009215461EE046
:100CC000751E05D400F0CAFA303262556D1EF9D592
:100CD000B3460122084302D000227F1C04E02078A2
:100CE000302801D100227F1E002A099784D01DE000
:100CF000112D07DA00F0B2FA303262556D1C50EA5D
:100D00000102F5D1084302D00098C8B10EE00021DD
:100D1000681E05E0235C625C63542254401E491C3B
:100D20008142F7DBAB46A81B401E0990002004F867
:100D30000B000B98099AC0F80880C0E9002B7AE7ED
:100D400011264FF0000857E72DE9F04F884604467A
:100D5000D21D22F0070191B0D1E90001CDE90A01CD
:100D600002F024FD02460B98C00F01D02D2007E0B1
:100D70002068810701D52B2002E0202101EAC00074
:100D8000032A099001D0072A05DB03464146204685
:100D900000F0AAFA0BE12078800601D5E06900E0B6
:100DA0000620B8F1650F814606D0B8F1660F18D05D
:100DB000B8F1670F70D131E00020B9F1110F009048
:100DC00001DB112301E009F101030AAA01A90CA822
:100DD000FFF7E2FEDDE90C70002609F1010583460C
:100DE00047E001204B4600904FF000470AAA01A9B6
:100DF0000CA8FFF7D1FEDDE90DB00C995D46002689
:100E000010B909F101000D18B9EB050003D4C0F1C8
:100E1000FF3609F10105A5EB09002BE0B9F1010F3F
:100E200001DA4FF001090020B9F1110F0090484696
:100E300001DD112300E003460AAA01A90CA8FFF76F
:100E4000ABFEDDE90C704D46002683462078000796
:100E50000AD4AB4500DA5D4601A8012D04DD411935
:100E600011F8011C302907D04F4502DA17F1040FA1
:100E700004DA012082460FE06D1EEEE7002F02DC4F
:100E8000ED1B3E4403E0781CA84200DD7D1CB81B2E
:100E900000F1010A4FF000472078000703D4AA456B
:100EA00001DB4FF0FF3A0021B7F1004F0DF143088D
:100EB0008DF8431024D002202B23002F01DA7F422B
:100EC0002D230A21021EA0F1010000DC5FB197FB77
:100ED000F1FC97FBF1F201FB1C7C17460CF1300C86
:100EE00008F801CDEEE7A8F101000370218809059B
:100EF00001D5452100E06521A0F1010800F8011CA1
:100F000009980FA9A1EB0807FF1D00B101204119A5
:100F100001EBEA70A1693844081A401EA0612078EC
:100F2000C00602D42046FFF7C3FA099828B1D4E9D5
:100F300001219047206A401C20622078C00622D5FB
:100F40002046FFF7B5FA1EE0002E04DBB34502DDB4
:100F500001A8805D00E03020D4E901219047206A9B
:100F6000401C2062761CAAF101005FEA000A0AD147
:100F700000F06CF9C0680168405CD4E90121904739
:100F8000206A401C2062281EA5F10105DCDC07E078
:100F9000D4E9012118F8010B9047206A401C206217
:100FA000381EA7F10107F3DC2046FFF797FA03206C
:100FB00011B041E601694A1C02610878704700B52A
:100FC0008FB0CDE901310021059105497944CDE982
:100FD000031011466846FFF741FB0FB000BD00004B
:100FE000E5FFFFFF0A6802F8010B0A60704710B5C1
:100FF000436913B1AFF3008001E0FFF780FA0120ED
:1010000010BD127800F124010A7000224A700122FA
:10101000EDE711684FF0FF32E9E70000074B70B5CC
:101020000D467B44FFF7CBFF0446284600F024FA28
:1010300010B14FF0FF3070BD204670BDB34E0000C0
:101040002DE9FF5F15468A460446DFF8AC80F84478
:101050000027D8E900103E46CDE9001010E03AF82C
:1010600016106A4602A800F00BFA411C07D021783E
:10107000890603D5E269391891420DD80744761CD8
:101080002078800602D5E069B84205DDAE42E6DB95
:101090003AF816000028E2D1A069C01BA0612046E2
:1010A000FFF706FAD8E90010CDE90010002017E09C
:1010B0003AF818106A4602A800F0E2F9B0F1FF3FD2
:1010C00081460BD000250DF1080B05E0D4E9012184
:1010D0001BF8050090476D1C4D45F7D308F1010042
:1010E000B0428046E4DB206A384420622046FFF7A5
:1010F000F5F9BDE8FF9F000096AC00002DE9F04136
:101100008046D21D22F007020025D2E90002F5290F
:1011100015A614D0011E72F1000106DA0023D0EBEF
:10112000030063EB020211A608E0D8F800108B0759
:1011300001D50FA602E0490701D50EA601251146EB
:10114000002408F1240704E000F088F830323A5512
:10115000641C50EA0102F7D12B4632462146404634
:10116000BDE8F041FFF7AABC000000002D00000020
:101170002B0000002000000030B4002100F1240406
:1011800008E002F00705D208303542EA4372DB0876
:101190006554491C52EA0305F3D10468002310A2E8
:1011A000250707D5A40600D421B1C46901230DA2E7
:1011B000641EC46130BCFFF781BC10B504462146F3
:1011C0001068FFF772FC02462046BDE8104000237D
:1011D000D2E7D21D22F00701D1E90023CCE70000BD
:1011E000000000003000000010B5203AC0F00B8075
:1011F000B1E81850203AA0E81850B1E81850A0E81B
:101200001850BFF4F5AF5FEA027C24BFB1E8185074
:10121000A0E8185044BF18C918C0BDE810405FEAE4
:10122000827C24BF51F8043B40F8043B08BF704760
:10123000D20728BF31F8023B48BF11F8012B28BF65
:1012400020F8023B48BF00F8012B70470048704768
:1012500078350120004870475835012030B5B0F18D
:101260000A024FEA900E71F100034EEA817EB0EB64
:101270000E0061EB91014FEA101E4EEA017E10EB69
:101280000E0041EB11114FEA102E4EEA016E10EBE9
:101290000E0041EB11214FEA104E4EEA014E10EBC9
:1012A0000E0041EB1141401841F100014FEAD0001E
:1012B00040EA41704FEAD10110EB80054FEA81040A
:1012C00044EA907444EB01046D1944EB0404521B8E
:1012D000A3414FF0000348BF0A3200D530BD401C87
:1012E00041F1000130BD00002DE9F0411F460446E8
:1012F00003260168072A01F4006004DB08B116A583
:1013000005E016A503E008B115A500E015A521F03C
:1013100010002060A069C01EA0610FB1401EA06136
:101320002046FFF7C5F84FB1D4E901213846904770
:10133000206A401C2062C01C206206E0206AFAE796
:10134000D4E9012115F8010B9047761EF8D220460A
:10135000FFF7C4F8BDE8F0814E414E006E616E00AB
:10136000494E4600696E660010B5436913B1AFF38C
:10137000008001E0FFF764FE012010BD128800F13B
:10138000240182840022C2840122EDE711684FF01B
:10139000FF32E9E72DE9F047814616468AB0354825
:1013A00078440DC88DE80D0032487844801C03ACA9
:1013B0000DC884E80D0041F69B300844372190FBAE
:1013C000F1F290FBF1F5A5F1800501FB12041B3C45
:1013D00002D56442012000E00020DFF898A080469A
:1013E0000027FA44AAF1BE0A0EE0E0070AD032460E
:1013F000684607EB470101230AEB810100F06DFB12
:101400008DE8070064107F1C002CEED1194F7F443B
:10141000AE3F19E0E80715D007EB04100DF1180AEC
:1014200090E80E008AE80E00C068F04201D19819D9
:1014300008903246012306A903A800F04EFB03AB37
:1014400083E807006D10641C002DE3D14FF0010309
:1014500032466946B8F1000F03A802D000F028FB1D
:1014600001E000F03AFBC9E90001C9F808200AB020
:10147000BDE8F08768AA0000007B00F0800070479C
:1014800070B516460C46054600F044F8036893F81C
:101490000101012806D0FF2C0FD8185D68B101208A
:1014A0002C7070BDD3F807013246214603F20713B2
:1014B00003442846BDE8704018474FF0FF3070BD28
:1014C00000487047583501207546FFF7F9FFAE46D2
:1014D00005006946534620F00700854618B020B540
:1014E000FEF786FFBDE820404FF000064FF00007F2
:1014F0004FF000084FF0000B21F00701AC46ACE8BC
:10150000C009ACE8C009ACE8C009ACE8C0098D4628
:101510007047000010B5FFF799FE001D10BD00BF19
:101520002D82000010B50446AFF300802046BDE8D0
:101530001040FEF7E8BE00004FF0013C50F8042BCD
:1015400051F8043B9A4221D1A2EB0C03934313EAD6
:10155000CC1317D150F8042B51F8043B9A4215D103
:10156000A2EB0C03934313EACC130BD150F8042BDA
:1015700051F8043B9A4209D1A2EB0C03934313EABE
:10158000CC13DBD04FF00000704700BFD01A01BA77
:10159000B1FA81F101F0180122FA01F0CB40C1F15A
:1015A0002001DBB2C0B2C01A2CFA01F3D11A914368
:1015B00011EAC311E6D170475FEA400C08BF91F011
:1015C000000F4FEA8C234FEAC12243EA51514FEA00
:1015D0001C5018BF00F5F0404FEA300018BF41F032
:1015E00000415FEA6C5C00F02980BCF1FF3F08BF5E
:1015F00040F080407047130C06BF12044FF0100CEF
:101600004FF0000C130E04BF12020CF1080C130F64
:1016100004BF12010CF1040C930F04BF92000CF1F3
:10162000020CD30F04BF52000CF1010C11464FF015
:101630000002A0F11F00A0EB0C00704711F0004F5A
:1016400008BF704731F000413FF4D5AF0B0C06BF27
:1016500009044FF0100C4FF0000C0B0E04BF0902F0
:101660000CF1080C0B0F04BF09010CF1040C8B0FDB
:1016700004BF89000CF1020CCB0F04BF49000CF130
:10168000010CCCF12003A0EB0C0022FA03F302FAC8
:101690000CF241EA030100F10100704720F07F4C99
:1016A00080EA030023F07F47ACEB070303F57C538C
:1016B00000F0004003F1FF032DE980494FEA154B8C
:1016C00009B44FEA144325EA0B4E24EA03480FF20B
:1016D000042606EB132749083E785FEA320203FB33
:1016E0000667C7F5000707FB06F64FEA54374FEACF
:1016F000D64606F1020607FB066CCCF1005C4FEA09
:101700001C472CEA074C07FB06F40CFB06F504EB20
:1017100015464FEA961634BF00204FF000404FEABE
:10172000D13706FB07FC4FEA1C4C0CFB0BF7D21B16
:1017300003FB0CF761EB07010CFB0EF7B0EB074066
:1017400072EB17420CFB08F734BFA2EB0742B2EB77
:10175000074261EB17414FEA0C444FEA910706FB41
:1017600007FC4FEA1C4C0CFB0BF7B0EBC74072EBCD
:10177000573203FB0CF734BFA2EBC742B2EBC742B0
:1017800061EB57310CFB0EF7B0EBC70072EB5772F1
:101790000CFB08F734BFA2EBC702B2EBC70261EB48
:1017A0005771039F4FEA816141EA921104EBCC0427
:1017B0004FEAD1374FEA826206FB07FC42EA9012F9
:1017C0004FEA80604FEA1C4C0CFB0BF7D21B03FB6B
:1017D0000CF761EB07010CFB0EF7B0EB074072EB67
:1017E00017420CFB08F734BFA2EB0742B2EB0742EB
:1017F00061EB17414FEA8C554FEA910704EB9C24AB
:1018000006FB07FC4FEA1C4C0CFB0BF7B0EBC74088
:1018100072EB573203FB0CF734BFA2EBC742B2EBBB
:10182000C74261EB57310CFB0EF7B0EBC70072EB10
:1018300057720CFB08F734BFA2EBC702B2EBC7022A
:1018400061EB577115EB4C254FEA816141EA92112A
:101850004FEA82624FEAD13742EA901206FB07FC58
:1018600044F100044FEA80604FEA1C4C0CFB0BF77C
:10187000D21B03FB0CF761EB07010CFB0EF7B0EB7F
:10188000074072EB17420CFB08F734BFA2EB07428C
:10189000B2EB074261EB174115EB1C154FEA8131A2
:1018A00041EA92414FEA823242EA90424FEA803066
:1018B0004FEA0C7644F1000448EA03434EEA0B4831
:1018C0004FF0000EB2EB080C71EB030724BF624629
:1018D00039464EEB0E0E4FF0000B001852414941B5
:1018E0004BEB0B0BB2EB080C71EB03077BF1000B1E
:1018F00024BF624639464EEB0E0E4FF0000B001827
:10190000524149414BEB0B0BB2EB080C71EB030757
:101910007BF1000B24BF624639464EEB0E0E51EAB6
:10192000020718BF46F0010616EB0E7655F10002CD
:1019300054F1000103D5BDE88901BDE80088BDE888
:101940008901BDE80048B619524141EB0101A3F1FC
:101950000103704780807F7E7D7C7B7A7978777603
:1019600076757473727171706F6E6E6D6C6C6B6A7C
:101970006A6968686766666564646363626161601A
:10198000605F5F5E5E5D5D5C5C5B5B5A5A59595897
:101990005857575656555555545453535252525101
:1019A000515050504F4F4F4E4E4D4D4D4C4C4C4B57
:1019B0004B4B4A4A4A49494948484847474747469E
:1019C00046464545454444444443434343424242DA
:1019D00042414141002B9C4630D477002BD01CB5AE
:1019E0004FEA370703B44FF010004FF01001BAF17F
:1019F000000F06D0BCF1000FDCBF40F0080040F043
:101A000008014FF000000FBCBDE810400BF1010BC6
:101A1000BBF1010F08BF5FEA170722BF12F10102F5
:101A200011F101014FF0004143F1000300F00040CB
:101A300043EA00007047F9D35708D0E746EA064664
:101A400013F1400F4FEA16461FDD13F1200FDFBFE1
:101A500016430A46002120335B42BED0C3F1200763
:101A600046EA064602FA07F74FEA164646EA07062E
:101A7000C3F1200722FA03F201FA07F721FA03F172
:101A80004FF0000342EA0702A7E746EA020646EAE9
:101A900006464FEA164646EA0106BCBF46EA064637
:101AA000360C4FF000034FF000024FF0000194E7B6
:101AB0002DE9804C9A46934670B491E8380007C8E7
:101AC00031EA400C48BF34EA430C03D5FFF7E6FD8A
:101AD000FFF780FFF0BCBDE8008C2DE9804C9A46F2
:101AE000934670B491E8380007C810F0804F08BFE3
:101AF00013F0804F03D100F005F8FFF76BFFF0BC47
:101B0000BDE8008C20F07F4780EA030023F07F4C83
:101B100007EB0C03A3F57C5300F00040A3F1FE0398
:101B200092F0000F00F0B38095F0000F00F0778086
:101B30002DE901494FEA11404FEA144621EA0048D5
:101B400000FB06FC24EA064708FB06F607FB08F83C
:101B500000FB07F718EB06484CEB164C4FEA124B0C
:101B600018EB07484FEA15464CEB174022EA0B4E9C
:101B70000BFB06FC25EA06470EFB06F607FB0EFEEE
:101B80000BFB07F71EEB064E4CEB164C4FF0000616
:101B90001EEB074E4CEB174B18EB0B0840F1000007
:101BA00018EB0E0B58EB000840F100008F1A4FF0B5
:101BB00000013CBFC943661B14BFB5EB040C0021F8
:101BC0003CBFC943F61B4FEA17444EEA8E0E27EA84
:101BD00004454FEA1C4704FB07622CEA074C05FB4F
:101BE00007F70CFB05F604FB0CFC16EB074642EB73
:101BF000174216EB0C4642EB1C421BEB060658EB59
:101C00000202414146EA9E0601D5BDE80189B619A6
:101C1000524141EB0101A3F10103BDE801894FEA03
:101C200014454FEA114724EA054621EA074C05FB13
:101C300007F406FB07F70CFB06F105FB0CFC11EBA8
:101C4000074144EB17444FEA124711EB0C4144EBB8
:101C50001C4422EA074C05FB07F206FB07F70CFBC6
:101C600006F605FB0CFC16EB074642EB174216EB9B
:101C70000C4642EB1C456A1854F1000148BF7047FE
:101C8000B619524141EB0101A3F10103704795F0F0
:101C9000000F37D04FEA11424FEA144721EA0246BB
:101CA00024EA074C02FB07F106FB07F70CFB06F4DE
:101CB00002FB0CFC14EB074441EB17414FEA1547BC
:101CC00014EB0C4441EB1C4125EA074C02FB07F5E1
:101CD00006FB07F70CFB06F602FB0CFC16EB0746AF
:101CE00045EB174516EB0C4645EB1C42121951F11A
:101CF000000148BF7047B619524141EB0101A3F101
:101D0000010370474FEA14454FEA114724EA05469C
:101D100021EA074C05FB07F106FB07F70CFB06F26F
:101D20004FF0000605FB0CFC12EB074241EB17419C
:101D300012EB0C4251EB1C4148BF7047921841EB2B
:101D40000101A3F10103704710B5142001F08EF9D1
:101D5000800705D10321BDE81040142001F01ABA14
:101D600010BDFEE770B50C46054601F07FF920EA8C
:101D700004012846BDE8704001F002BD7047000034
:101D80000149086070470000143C014030B51A4A10
:101D90008379016853B313688B431360111D0B687B
:101DA0000468A3430B60017911440B680468234362
:101DB0000B60114B083319680468A14319601C1D9E
:101DC00021680568A94321604179102905D0114493
:101DD0000A68006802430A6030BD1968026811434E
:101DE0001960216800680143216030BD007910440A
:101DF00002688A43026030BD003C0140F0B5002219
:101E000001274FF0030C0B6807FA02F52B40AB4299
:101E10002CD1066853000CFA03F4A64306600E7931
:101E2000D0F800E09E4046EA0E0606600E79012ECC
:101E300001D0022E12D18668A64386604E79D0F872
:101E400008E09E4046EA0E0686604668AE4346605D
:101E500045688E799640B6B235434560C568A5435E
:101E6000C560CC799C40C3681C43C460521C102AD6
:101E7000C9D3F0BD4B07DB0E9A40C90810B500EB83
:101E80008100016A0F249C40A1430162016A114351
:101E9000016210BD018370470AB10183704741831D
:101EA0007047FEE770B50D4C0025C4F8A0520C48F1
:101EB000016821F440210160016841F48021016042
:101EC000C4F8A452022004F5287403F059FA012042
:101ED0002060022003F054FA256070BD008040426B
:101EE000000402401CB50121022000F0EFFD4FF478
:101EF0004070012400908DF804408DF806400320C6
:101F00008DF805008DF8074069460448FFF776FF15
:101F10000348C0F8A042C0F8A4421CBD000402401F
:101F20000080404270B50D4C0026C4F8A0620C48F9
:101F3000016821F440210160016841F480210160C1
:101F40000125C4F8A452022004F5287403F018FAFD
:101F50002560022003F014FA266070BD0080404224
:101F6000000402402DE9F04781461648002401682C
:101F700021F44021016001680160134E2546274687
:101F80004FF00108C6F8A072022003F0F9F9C6F874
:101F9000A0826006040ED6F8240208B1641CE4B2E4
:101FA000012003F0EDF96D1CEDB2082DEAD3B9F173
:101FB000000F04D0FFF776FF2046BDE8F087FFF75B
:101FC000B1FFF9E700040240008040422DE9F041F2
:101FD00005461448016821F440210160016841F47C
:101FE00080210160104E0027C6F8A0723C464FF0D9
:101FF0000108E809C6F8A4026806050E022003F0ED
:10200000BFF9C6F8A082022003F0BAF9C6F8A072A0
:10201000022003F0B5F9641CE4B2082CE9D3BDE852
:10202000F0810000000402400080404270B50120B1
:1020300005F046FF0C4D0120C5F8BC020B4EC6F85A
:10204000A802052005F52F7506F52A7603F098F904
:1020500000243460052003F093F92C60BDE8704043
:10206000052003F08DB9000000804042008041420D
:1020700070B50D48016821F440210160016841F408
:1020800080210160094C0120C4F8A402C4F8A00218
:10209000042004F5287403F073F90025656004201A
:1020A00003F06EF9256070BD0004024000804042DC
:1020B00070B5012005F004FF09480124C0F8BC42B6
:1020C000084D0020C5F8A802052005F52A7503F083
:1020D00057F92C60BDE87040052003F051B90000AD
:1020E00000804042008041420E4810B5016821F452
:1020F00040210160016841F4802101600A4C002008
:10210000C4F8A002C4F8A402042004F5287403F063
:1021100037F9012020606060BDE81040042003F022
:102120002FB90000000402400080404270B500203A
:1021300005F0C6FE0A4D0120C5F8BC02052003F0DB
:102140001FF90848D0F8280208B1012400E0002453
:102150000020C5F8BC02052003F012F9204670BD2E
:10216000008040420080414270B51348002401685D
:1021700021F44021016001680160104D0126C5F87D
:10218000A462304603F0FCF8C5F8A062012003F019
:10219000F7F80AE0641CE4B2012003F0F1F8FA2C2D
:1021A00003D9FFF7A1FF012070BDD5F82402002854
:1021B000F0D1C5F8A00270BD00040240008040428A
:1021C00002494CF6CC4008607047000000300040E7
:1021D00002494AF6AA20086070470000003000401B
:1021E00001494860704700000030004001498860A4
:1021F000704700000030004001490860704700004F
:102200000030004007484FF40071012201600021B6
:102210000171827103224271C17101460248FFF7C8
:10222000EDBD00007C000020001802402DE9FC41BB
:102230000121102000F04AFC0121202000F046FC82
:1022400001248DF8044000278DF806700325DFF87F
:102250004C804FF4C0468DF8055000968DF807402D
:1022600069464046FFF7CAFD31464046FFF712FE79
:102270008DF804408DF806708DF805508DF80740F4
:10228000074C6E02009669462046FFF7B7FD3146BF
:102290002046FFF7FFFDBDE8FC8100000010024072
:1022A000001402407CB50546082100240846FFF7CB
:1022B00059FD80210E20FFF755FD00210D2001F072
:1022C0005FFA932028702020687001A82B460090A8
:1022D000022219460C2000F06BF806000AD10022F9
:1022E000A85C521C4440D2B2042AF9D3A85CA04294
:1022F00000D0022680210E2000F04CFF30467CBD2D
:1023000010B500F0FBFE00F037F88D212A2001F017
:1023100037FA3E212B2001F033FA32212D2001F033
:102320002FFA00212C2001F02BFA4021152001F07A
:1023300027FA3D21112001F023FA0021012001F0AC
:102340001FFABDE81040FFF7FFBC7CB50C46054600
:1023500007210D2001F014FA257001A823460090F2
:10236000012219460C2000F023F818B9BDF804101A
:10237000102900D002207CBD70B50C4C0125C4F89A
:10238000AC52284604F52B7402F0FAFF00202060BE
:10239000284602F0F5FF2560284602F0F1FFBDE86F
:1023A00070400F21012001F0EBB900000000414214
:1023B0002DE9FF5F0025DDF838B017468A468046D4
:1023C0004FF002092E460C2805D0B8F10E0F04D1AB
:1023D0001225102601E07725302645F080010220E5
:1023E00001F0CEF980210420FFF7BCFC80210A20F7
:1023F00000F0D0FE0021012001F0C2F9002406E027
:102400001AF80410092001F0BBF9641CA4B2BC4204
:10241000F6D34146012001F0B3F9B8F10C0F03D116
:1024200080210D2000F0B6FE42F21074042000F06E
:102430001DFE641E24040746240C03D0F80701D1B6
:102440003742F3D080210D20FFF78CFC8CB306209F
:1024500000F00CFE10F01B0F01D0022028E0B8F1B4
:102460000C0F24D10A2000F001FE05460C2000F0DC
:10247000FDFD10F007004FEAC50104D008390844FB
:10248000ABF8000001E0ABF8001025B1122D00D927
:102490001225002409E00125FBE7092000F0E6FDF4
:1024A000014603980155641CA4B2AC42F5D3002048
:1024B000814680210C2001F063F90021012001F008
:1024C0005FF904B04846BDE8F09F000010B5FFF783
:1024D00009FD80216B2000F0CEF8642002F034FF6B
:1024E00000216B2000F0C7F8032000F090F80020D6
:1024F00000F088F8322000F0A7F80021382000F022
:10250000BAF800216A2000F0B6F80021232000F07C
:10251000B2F88021372000F0AEF8752000F020F8E6
:1025200004460AA0FDF7A2FF682C01D0012010BDCF
:1025300001216B2000F09FF800216C2000F09BF837
:10254000322000F081F8002010BD00006D7075365B
:102550003035305F636F6E666967206F6B0D0A0000
:1025600010B50446FFF784FDD020FFF72FFDFFF7DD
:10257000FBFD2046FFF72AFDFFF7F6FDFFF778FD8C
:10258000D120FFF723FDFFF7EFFD0020FFF7EAFC66
:102590000446FFF7A9FD204610BD2DE9F0411C4679
:1025A00015460F460646FFF763FD7006000EFFF75F
:1025B0000DFDFFF7D9FD20B1FFF796FD0120BDE825
:1025C000F0813846FFF702FDFFF7CEFDFFF750FD23
:1025D000012000EB4600C0B2FFF7F8FCFFF7C4FD96
:1025E00008E0012D0CD00120FFF7BCFC6D1E04F8A3
:1025F000010BEDB2002DF4D1FFF776FD0020DEE7F0
:102600000020F1E7C006010E1C2000F034B8C0061F
:10261000010E1B2000F02FB8BC2801D3012110E0CF
:10262000622801D302210CE02A2801D3032108E00B
:10263000142801D3042104E00A2801D3052100E075
:1026400006211A2000F017B810B504464FF47A702E
:10265000844201D9044602E0042C00D20424B0FBD9
:10266000F4F0401EC1B2192000F005F86008BDE882
:102670001040FFF7D1BF70B50C460546FFF7F8FCD8
:10268000D020FFF7A3FCFFF76FFD50B92846FFF7F6
:102690009DFCFFF769FD2046FFF798FCFFF764FDFE
:1026A00018B1FFF721FD012070BDFFF71DFD0020CF
:1026B00070BD2DE9F0411D4616460C460746FFF752
:1026C000D7FC7806000EFFF781FCFFF74DFD60B9DF
:1026D0002046FFF77BFCFFF747FD00240CE0285D58
:1026E000FFF774FCFFF740FD20B1FFF7FDFC012070
:1026F000BDE8F081641CE4B2B442F0D3FFF7F4FC0F
:102700000020F5E7FEE7704730B50F23C278017867
:102710000125FAB1144A126801F1E02102F4E062E5
:10272000C2F5E062C2F30722C2F10404D34042784A
:10273000A24084781C401443220181F800240078D0
:1027400000F01F018D404009800000F1E020C0F83A
:10275000005130BD01F01F0085404809800000F1A4
:10276000E020C0F8805130BD0CED00E00249084384
:1027700002490860704700000000FA050CED00E017
:1027800070B50025002105F1B00000F078F90021B6
:10279000084600F074F90021102000F070F90024C0
:1027A0000121002000F06BF9641CE4B2802CF7D307
:1027B0006D1CEDB2082DE5D370BD2DE9F0471F4625
:1027C00090460E4682460025DDF8209011E0314605
:1027D000504600F0B7F8544607E019F8050001210B
:1027E0006D1C00F04CF9641CE4B24445F5D3761C32
:1027F000F6B2BE42EBD3BDE8F08700002DE9F04110
:102800000121022000F062F90121082000F05EF9A8
:10281000474C4FF40040012520602571A571032726
:1028200067710026E67121464248FFF7E7FAA802E1
:1028300020602571A5716771E67121463E48FFF75A
:10284000DDFA3E48C0F8BC523D48C0F8A852C82046
:1028500002F07AFD0021AE2000F011F900210846B7
:1028600000F00DF90021102000F009F900214020AE
:1028700000F005F90021B02000F001F900218120CD
:1028800000F0FDF80021FF2000F0F9F80021A12060
:1028900000F0F5F80021A62000F0F1F80021A820B2
:1028A00000F0EDF800213F2000F0E9F80021C820F9
:1028B00000F0E5F80021D32000F0E1F800210846FF
:1028C00000F0DDF80021D52000F0D9F800218020AB
:1028D00000F0D5F80021D82000F0D1F80021052023
:1028E00000F0CDF80021D92000F0C9F80021F12036
:1028F00000F0C5F80021DA2000F0C1F80021122014
:1029000000F0BDF80021DB2000F0B9F800213020F4
:1029100000F0B5F800218D2000F0B1F8002114205E
:1029200000F0ADF8BDE8F0410021AF2000F0A7B8FD
:102930008C00002000040240000C02400080404255
:102940000080414210B50A460446002102F1B00061
:1029500000F095F8102040EA1410002100F08FF8E4
:1029600004F00F00BDE81040002100F088B800001E
:102970002DE9F04115460E460746FFF7E3FF0F48E5
:10298000002400EB85150121285D00F078F8641C17
:10299000E4B2102CF7D3761CF1B23846FFF7D2FF21
:1029A00000242819012190F8200000F068F8641C28
:1029B000E4B2102CF5D3BDE8F081000094000020B3
:1029C0002DE9F041203A00240F468046D5B27F28F9
:1029D00003D900208F1C8046FFB2102B394610D03F
:1029E000FFF7B0FF164905EB450001EB400501215B
:1029F000285D00F044F8641CE4B2062CF7D3BDE86F
:102A0000F081FFF79FFF0F4E04EB05100121305CB2
:102A100000F035F8641CE4B2082CF5D37F1CF9B241
:102A20004046FFF78FFF002404EB051030440121DE
:102A3000007A00F024F8641CE4B2082CF4D3DEE73A
:102A4000FEA7000826AA00082DE9F041984617467F
:102A50000E46044600250DE0434631462046FFF76A
:102A6000AFFF0834E4B2782C02D90024B61CF6B2C9
:102A70006D1CEDB27A5D002AEED1BDE8F081C0B2E6
:102A800009B100F066BE00F04DBE000010B5094867
:102A90004FF40071012401600471847103214171BC
:102AA0000021C17101460448FFF7A8F90348C0F8A6
:102AB000A44210BD7C0000200018024000004342E8
:102AC000014908627047000000000E42044A0029D4
:102AD000116801D0014300E081431160704700009C
:102AE00030380240044A0029116801D0014300E057
:102AF000814311607047000040380240044A0029B9
:102B0000116801D0014300E081431160704700006B
:102B1000443802400248016841F08071016070470A
:102B20007438024070B5204B1968204C11F00C012C
:102B300004D06610042903D0082903D004601BE0E8
:102B4000066019E0184A121F1168C1F38055116818
:102B500001F03F0115B1B6FBF1F101E0B4FBF1F179
:102B600014681268C4F388146143C2F30142521C12
:102B70005200B1FBF2F1016019680F2202EA111153
:102B80000B4A545C0168E14041601C68072505EA76
:102B90009424145D21FA04F484601B6805EA53331D
:102BA000D25CD140C16070BD083802400024F400FE
:102BB000B002002002460020510901290BD0022951
:102BC0000CD00849096802F01F02012393400B4210
:102BD00000D00120704703497439F3E70149091F08
:102BE000F0E7000074380240054900220A700A70BC
:102BF000012802D0042801D1052008707047000088
:102C00007038024001490860704700003C0E47429E
:102C1000C0F30121032907D1074B1968074A21F4A2
:102C2000F81102400A431A60034968310A68C0F388
:102C30000B0002430A60704708380240FFFCFF0F98
:102C4000010901EB810100F00F0000EB4100C0B26F
:102C50007047002103E0491C0A38C9B2C0B20A28F3
:102C6000F9D2090740EA11607047000080B240F0D5
:102C70008000C1430348026802F0800211430160F2
:102C8000704700000C280040C0F30F1040F0800097
:102C9000C1430348026802F080021143016070479B
:102CA0000C28004008B50D49002000900868400637
:102CB00012D44FF0FF3008608B130868009A00F0C0
:102CC0004000521C00929A4201D00028F5D00868BA
:102CD000400601D4002008BD012008BD0C2800409A
:102CE0000248016821F08001016070470C28004013
:102CF0000B4A0021126802F00403094A383A1268AC
:102D000003EAD03302401A43064B1B6803EA101053
:102D100003D00004000C00D00121084670470000D9
:102D2000402800400C280040020010B510480C4616
:102D30000168104801EA0001C1F305402070C1F3A9
:102D40000623637001F07F03A3704FF0400303EA92
:102D50001141E1700AD1FFF773FF20706078FFF72F
:102D60006FFF6070A078FFF76BFFA07010BD0000D0
:102D7000002800407F7F7F0030B50E4DCA222A60B8
:102D800053222A600B4C0B4B1C3C1C33002920F0B7
:102D90000402216800F0040004D011432160196886
:102DA000014303E091432160196881431960FF20CA
:102DB000286030BD2428004070B5124D044600261E
:102DC000CA20286053202860FFF76CFFA8B10D4887
:102DD0001C38016821F0400101600168226811433C
:102DE00001600848A168143801600168A28841EABE
:102DF00002410160FFF774FF0126FF202860304682
:102E000070BD00002428004070B50C46002601006B
:102E100060780FD0FFF714FFA078FFF711FFA078BC
:102E2000E17840EA014560782178000240EA4130CB
:102E3000054315E0C10603D520F010000A3060708C
:102E4000E078FFF706FF05046078FFF702FF45EA28
:102E50000025A078FFF7FDFE0543207845EA4035C0
:102E60000D4CCA20206053202060FFF71BFF78B173
:102E70000A480540084820380560FFF731FF06483A
:102E80001C380068800602D400F08AF800B10126E0
:102E9000FF202060304670BD242800403FFFFF0027
:102EA0002DE9F0410C460026234F010020783968B7
:102EB00032464FEA416104D0002930DAFFF7C0FE04
:102EC0002EE0002900DBE270FFF7C3FE0504607806
:102ED000FFF7BFFE45EA0025A078FFF7BAFE0543DD
:102EE000E07845EA0045144CCA201C342060532089
:102EF0002060FFF7D7FE68B1104805400E4808383B
:102F00000560FFF7EDFE3868800602D400F048F84F
:102F100000B10126FF2020603046BDE8F081E2705C
:102F2000A078217840EA01456078E178000240EA23
:102F300001400543D7E70000082800407F7F7F005D
:102F40000549CA220A6053220A60034A103A1060F7
:102F5000FF200860704700002428004070B5502012
:102F6000EFF3118480F31188BFF34F8FBFF36F8F9E
:102F70004FF480452846FFF7BBFE01280BD1010323
:102F800006480022006805F01FFD2846FFF77CFE7A
:102F90002802FEF7F5FE84F3118870BD640000205E
:102FA00018B50020104B0090CA20186053201860FC
:102FB0000D491839086820F0A00008604FF400346B
:102FC0000868009A00F02000521C0092A24201D032
:102FD0000028F5D00868800601D5012000E0002017
:102FE000FF21196018BD000024280040084ACA21AA
:102FF00011605321116006491C390B6823F0070347
:103000000B600B6803430B60FF20106070470000EB
:103010002428004018B50021134B0091CA211960E3
:103020005321196010491C390028086803D040F466
:103030008060086014E020F4806008600A49183954
:103040008C130868009A00F00400521C0092A242FF
:1030500001D00028F5D00868400701D4002000E026
:103060000120FF21196018BD2428004010B5094C2B
:103070000021C4F898127E2101EA400040F080004F
:1030800004F5267400F008F800F034F801212160FE
:1030900010BD0000008041422DE9F05F00250724AB
:1030A000DFF84890DFF848808346AA46012606FAF2
:1030B00004F717EA0B0F02D0C9F8986201E0C9F8CB
:1030C00098A2C8F89CA2012002F05AF9C8F89C62A4
:1030D000012002F055F9D9F8200208B12F43FDB2C2
:1030E000641EE4D52846BDE8F09F00000000414280
:1030F00000804142FF20FFF7CFBF00002DE9FC41D7
:1031000001210420FFF7E2FC01210820FFF7DEFC8B
:1031100001258DF8045000244FF404608DF806401A
:103120000226184F00908DF805608DF8074069461B
:103130003846FEF763FE8DF80450C0208DF8064037
:1031400000908DF805608DF8074069460E48FEF73F
:1031500055FE8DF8044028028DF8064000908DF849
:1031600005608DF8074069463846FEF747FE074878
:10317000C0F89852C0F89C420548C0F89852BDE883
:10318000FC81000000080240000C02400080414227
:103190000000414270B50C460546FFF767FF40EA64
:1031A00004012846BDE8704000F0EABA0CB50022E0
:1031B000274900920192086840F4803008604FF47B
:1031C000A043086800F4003001900098401C009073
:1031D000019810B900989842F3D10868800334D55B
:1031E000012001901A484030026842F0805202608B
:1031F0001848026842F440420260154808300268EC
:103200000260026842F400420260026842F4A05286
:103210000260031F104A1A600A6842F080720A6056
:103220000A689201FCD50D4940F205720A600168F6
:1032300021F003010160016841F0020101600168B1
:10324000C1F381010229FAD10CBD01920CBD00002D
:10325000003802400070004008544007003C024023
:103260004FF0E0210428086903D020F00400086131
:10327000704740F00400FAE710B5502080F3118841
:10328000BFF34F8FBFF36F8F06F022F818B10449D8
:103290004FF080500860002080F3118810BD0000BE
:1032A00004ED00E0124810B5016841F470010160BE
:1032B0001048016841F0010101600E4A0021083206
:1032C000116002680C4B1A400260031D0B4A1A6021
:1032D000026822F48022026006480C300160FFF789
:1032E00065FF03494FF000608039086010BD0000A1
:1032F00088ED00E000380240FFFFF6FE10300024A9
:103300000029018802D041F0800101E021F0800114
:10331000018070470029018802D041F0010101E0DD
:1033200021F001010180704770B5028C22F010027B
:103330000284028C8388048B0D8824F4E6464FF6C1
:10334000FF7404EA052535438E8922F0200204EA41
:10335000061616434A8804EA02123243104EB0425F
:1033600002D0104EB04215D122F08006CA8923F453
:10337000406304EA0212324322F040068A8804EADB
:10338000021232430E8A04EA86061E434B8A04EA7E
:10339000830333438380058389688163028470BD1E
:1033A000000001400004014070B5028C22F48052FC
:1033B0000284058C8288838B0C8823F4E6464FF6C2
:1033C000FF7303EA0424344325F400568D8903EA8D
:1033D000053535434E8803EA06362E43084DA8428C
:1033E00002D0084DA84205D122F480450A8A03EA9A
:1033F00082122A438280848389680164068470BDB6
:103400000000014000040140828B4FF6FF7322F45C
:10341000006203EA01211143818370470164704710
:1034200030B50288164C174DA0420DD0A8420BD0E3
:10343000B0F1804F08D0144B984205D0134B9842FE
:1034400002D0134B984203D122F070034A881A43EA
:10345000104B984206D0104B984203D022F4407390
:103460000A891A4302804A68C2620A880285A04219
:1034700001D0A84201D1897A01860121818230BD23
:10348000000001400004014000040040000800402A
:10349000000C0040001000400014004070B55020A7
:1034A000EFF3118480F31188BFF34F8FBFF36F8F59
:1034B0000A4E40F225552946304600F068F850B1D2
:1034C000304600F0F1F8C1B205A0FCF7CFFF294665
:1034D000304600F045F884F3118870BD00100140BB
:1034E000256300002DE9F0415020EFF3118480F3B3
:1034F0001188BFF34F8FBFF36F8F154E40F22557E2
:103500003946304600F043F8F0B1304600F0CCF8D0
:10351000114D104AC0B229685054491C2960232813
:1035200001D014290CD30D4800231A46094900681C
:1035300005F09EFC14210748FDF7DFF90020286004
:103540003946304600F00CF884F31188BDE8F0816C
:1035500000480040C8050020640200203C00002014
:103560000A0A01219140C9430180704700298189DD
:1035700002D041F4005101E021F4005181817047F3
:103580000246002012880A4200D00120704770B520
:1035900001F01F0501260024C1F3421306FA05F2CB
:1035A000012B0FD0022B0FD0838A4FEA1121008804
:1035B000134206FA01F600EA060001D000B1012428
:1035C000204670BD8389F0E7038AEEE710B5C1F3AA
:1035D000421301F01F040121A140012B07D0022B4F
:1035E00007D01430002A026805D00A4304E00C30EA
:1035F000F8E71030F6E78A43026010BD7FB5044655
:10360000008A0D46C98820F4405001432182A089D8
:1036100041F20C618843A9882A8911436A890243CF
:103620001143A181A08A20F44071A8890843A08297
:103630006846FFF777FA1A48844202D01948844254
:1036400001D1039800E00298A189090400EBC001B0
:1036500001EB0010296801D5490000E08900B0FBAA
:10366000F1F06422B0FBF2F109010B096FF01805CB
:103670006B4300EB8300A3891D044FF0320306D592
:1036800003EBC000B0FBF2F000F0070005E003EB35
:103690000010B0FBF2F000F00F00084320817FBD66
:1036A00000100140001401408088C0F308007047FA
:1036B000C1F3080181807047FEE700002DE9F04763
:1036C0008146012004F0FCFB144D0026C5F8BC62C5
:1036D000134FC7F8A862052001F052FE07244FF0EF
:1036E000010AA8460AFA04F0554610EA090F02D06A
:1036F000C7F8A85201E0C7F8A862052001F040FE13
:10370000C8F8BC52052001F03BFEC8F8BC62052099
:1037100001F036FE641EE5D5BDE8F087008040422A
:103720000080414210B50446FEF780FC7820FFF788
:10373000C5FFFEF7FBFC0020FFF7C0FFFEF7F6FC1D
:103740002046FFF7BBFFFEF7F1FCBDE81040FEF797
:10375000AFBC10B50446FEF769FC7820FFF7AEFF5A
:10376000FEF7E4FC4020FFF7A9FFFEF7DFFC204650
:10377000FFF7A4FFFEF7DAFCBDE81040FEF798BCA7
:1037800070B5094C0D460021C4F898127E2101EA5B
:10379000400004F52674FFF77FFC2846FFF77CFC09
:1037A0000120206070BD00000080414203B40198F8
:1037B0004100009850EAC12018BF04204A0D18BFEC
:1037C00040F0010040F2FF72B2EB515F08BF40F0E1
:1037D0000200012808BF052002B070470000000069
:1037E00070B5C1482DED020B2DED0E8B82B0119DF1
:1037F00025F000449FEDBEDB9FEDBFEB84423EDB36
:10380000A4F140511098A1F17F6108430FD0BC484A
:10381000844202DC28D1109830B39DED100B02B029
:10382000BDEC0E8B02B0BDE8704000F069BC9DEDB0
:10383000100B53EC1D2B51EC100B06F0DBF99DED3A
:10384000100B41EC180B53EC1E2B51EC100B06F037
:10385000D1F953EC182B05F0CDFF41EC100B02B061
:10386000BDEC0E8B02B070BD0120FDF70FF902B068
:10387000BDEC0E8B02B0BDE8704000F055BCA14815
:103880009FEDA18B844256DA9DED100BB4F1795F68
:103890000ADA51EC100BFFF789FF042808BF00F08B
:1038A00053FC9DED100BDAE753EC102B51EC100B91
:1038B00006F0A0F941EC190B95480621B0EE490A33
:1038C000F0EE690A784400F09FFB53EC192B51ECA1
:1038D000100B06F08FF941EC1A0B8E48B0EE490A36
:1038E000F0EE690A0421784400F08EFB53EC192BAA
:1038F00051EC100B06F07EF953EC182B05F07AFF13
:1039000041EC100B51EC1A0B53EC102B06F01AF88B
:10391000CDE900019DED000B53EC102B9DED100B3C
:1039200051EC100B06F066F99DED101B53EC112BBA
:1039300005F060FFD2E09DED100B51EC100B02F092
:10394000BFFA53EC182B06F053FA9FED730BCDE939
:10395000000153EC102B9DED000B51EC100B06F009
:1039600049F941EC190B6E480621B0EE490AF0EE18
:10397000690A784400F048FB53EC192B51EC100B0A
:1039800006F038F941EC1B0B6648B0EE490AF0EE40
:10399000690A0421784400F037FB53EC192B51ECF1
:1039A000100B06F027F953EC182B05F023FF41EC20
:1039B0001C0B51EC190B04F043FB41EC180B5A485B
:1039C0009FED5BABA04222DC53EC1C2B51EC1B0B9C
:1039D00005F0B8FFCDE900019DED000B51EC180B8F
:1039E00053EC102B06F006F953EC182B05F002FFF0
:1039F00053EC1A2B06F0FEF853EC1D2B06F0D0FA10
:103A000053EC1E2B06F0F4F941EC100B5FE08DED4A
:103A1000008B002000909DED000B51EC180B53EC37
:103A2000102B05F0E7FE9DED000B41EC1E0B53EC57
:103A3000102B51EC100B06F0DDF853EC192B06F0AF
:103A4000D7F953EC1E2B05F07DFF41EC190B53EC1D
:103A50001C2B51EC1B0B05F075FF41EC1B0B53ECC1
:103A60001A2B51EC190B06F0C5F853EC1D2B06F080
:103A7000BFF941EC190B53EC1A2B51EC180B06F063
:103A8000B9F853EC1B2B06F0B5F853EC192B06F0E4
:103A900087FA9DED000B41EC180B53EC1A2B51ECFF
:103AA000100B06F0A7F89FED249B53EC192B06F0A2
:103AB0009FF941EC100B51EC180B53EC102B06F056
:103AC0006FFA53EC192B06F093F941EC100B002D13
:103AD0003FF7C5AE51EC100B05F04EFE41EC100B5C
:103AE000BDE60000000000000000F03F0000000004
:103AF000075C143326A6913C182D4454FB21F93F52
:103B00000000F07F0000E03F000000000000F03FF8
:103B1000D0830000DE830000000000000000E03FD2
:103B200022830000308300003333EF3F00000000A9
:103B30000000000000000040182D4454FB21E93F24
:103B400070B59B482DED020B2DED068B079D25F0E2
:103B50000044A04218DC9748844202DC0AD106984F
:103B600040B19DED060BBDEC068B02B0BDE8704088
:103B700000F0C6BA002DCCBF9FED8F0B9FED900BD0
:103B8000BDEC068B02B070BD8F48A04215DD8F489A
:103B9000A042D8BF4FF0FF3458DD9DED060B51EC2D
:103BA000100BFFF703FE042808BF00F0CDFA9DEDCF
:103BB000060BBDEC068B02B070BD9DED060B51EC03
:103BC000100B02F07DF9CDE9060181489FED828B53
:103BD000A0423CDD8248A0421FDD00249FED82AB65
:103BE0009DED060B53EC1A2B51EC100B05F002FE69
:103BF0009DED060B41EC190B53EC1A2B51EC100BFD
:103C000005F0F8FF53EC182B06F0CAF953EC192B0A
:103C100005F098FECDE9060149E09DED060B012473
:103C200053EC182B51EC100B05F0E4FD9DED060B49
:103C300041EC190B53EC182B51EC100B06F0B0F9BA
:103C400053EC192B05F07EFECDE906012FE0684804
:103C5000A0421FDD02249FED689B9DED060B53ECF7
:103C6000192B51EC100B05F0C5FF53EC182B05F088
:103C7000C1FD9DED060B41EC180B53EC192B51ECDB
:103C8000100B06F08DF953EC182B05F05BFECDE917
:103C900006010CE09DED060B032453EC102B9FED69
:103CA000580B51EC100B05F04DFECDE906019DEDD2
:103CB000060B53EC102B51EC100B05F09BFF41EC65
:103CC000180B53EC182B05F095FF41EC190B4E48DF
:103CD0000621B0EE490AF0EE690A784400F094F942
:103CE00053EC182B51EC100B05F084FF41EC180B32
:103CF0004648B0EE490AF0EE690A0521784400F022
:103D000083F953EC192B51EC100B05F073FF41ECC8
:103D1000100B51EC180B53EC102B002C0EDA05F0A5
:103D200069FD9DED061B53EC112B05F063FF9DED26
:103D3000061B53EC112B06F05BF835E005F05AFD3D
:103D40009DED061B53EC112B05F054FF41EC100BBD
:103D50002F48784400EBC40090ED001B51EC100B91
:103D600053EC112B06F01CF99DED061B53EC112BA7
:103D700006F016F941EC100B2648784400EBC4001D
:103D800090ED001B51EC100B53EC112B06F030F8AA
:103D900041EC100B002DA2BFBDEC068B02B070BD34
:103DA00051EC100B05F0E8FC41EC100B01E70000B2
:103DB000000010440000F07F182D4454FB21F93F0F
:103DC000182D4454FB21F9BF0000DC3F0000203EC9
:103DD0000000F33F00000000000000000000F03F82
:103DE0000000E63F0000000000000000000000406E
:103DF0000080034000000000000000000000F83FC9
:103E0000000000000000F0BF7A8000003080000059
:103E1000BA7F0000727F000070B56B4E2DED040B71
:103E20002DED028B82B0DDF81CC0DDE905235C427C
:103E30002CF000411C4341EAD474049D22F0004060
:103E4000B44205D86C422C4340EAD474B4420BD936
:103E50009DED061B9DED040B02B0BDEC028B04B082
:103E6000BDE8704000F056B9ACF14054A4F17F6455
:103E70001C430BD0022404EAAC7444EAD274054318
:103E80009FED538B9FED542B07D015E09DED040B58
:103E900051EC100B01F0A0F942E0002C11BF012CF5
:103EA0009DED040B02B0BDEC028B04BF04B070BDED
:103EB000022C38D0032C3BD00B439FED491B9FEDC8
:103EC0004A0B0AD0B14218D1B04209D121F0804149
:103ED00020F08040079105900FE0002A15DA10E0ED
:103EE000434B7B44002C08BF93ED000B0DD0012CFD
:103EF00010D0022C17D0032C1AD0B0421DD1002AAA
:103F000003DAB0EE410AF0EE610A02B0BDEC028BBA
:103F100004B070BD93ED000B51EC100B05F02CFCC0
:103F200041EC100BF1E7B0EE480AF0EE680AECE75E
:103F3000B0EE420AF0EE620AE7E7401A00153C28AC
:103F4000C8BF8DED000B19DCBCF1000FBEBF10F136
:103F50003C0F9FED290B8DED000B0FDB9DED060B4C
:103F600053EC102B9DED040B51EC100B05F0EAFC0B
:103F700001F0A6FF01F030F9CDE90001002C08BFE7
:103F80009DED000BC1D0012C10D0022C9FED1C0B1D
:103F900053EC102B9DED000B51EC100B0DD005F0E8
:103FA000FFFF53EC182B05F0FBFFB9E7019880F0F9
:103FB000004001909DED000BA7E705F0F1FF53ECE9
:103FC000182B05F015FFABE70000F07F00000000A4
:103FD000182D4454FB210940182D4454FB2109C0DD
:103FE000182D4454FB21F9BF182D4454FB21F93FEF
:103FF000A27E0000000000000000000000000000A1
:10400000075C143326A6A13C70B504462DED028B47
:104010004D1E00EBC500B0EE408AF0EE608A90EDD8
:10402000000B35F0060017D053EC182B51EC100B99
:1040300005F0E0FD41EC100B6D1E04EBC50090EDAA
:10404000001B51EC100B53EC112B05F0D3FB41EC92
:10405000100B35F00600E7D1022D36D0042D1CD010
:10406000062D1CBFBDEC028B70BD53EC182B51EC20
:10407000100B05F0BFFD94ED0A1B53EC112B05F05E
:10408000B9FB53EC182B05F0B5FD94ED081B53EC70
:10409000112B05F0AFFB41EC100B53EC182B51EC3E
:1040A000100B05F0A7FD94ED061B53EC112B05F04A
:1040B000A1FB53EC182B05F09DFD94ED040B53EC84
:1040C000102B05F097FB41EC100B53EC182B51EC27
:1040D000100B05F08FFD94ED021B53EC112B05F036
:1040E00089FB53EC182B05F085FD94ED001B53EC78
:1040F000112B05F07FFBBDEC028B41EC100B70BD6A
:1041000010B553EC102B51EC100B05F073FB41EC88
:10411000100B10BD10B553EC112B51EC100B05F02A
:1041200069FB41EC100B10BD9FED050B10B553EC76
:10413000102B51EC100B05F005FC41EC100B10BDE1
:1041400000000000000000009FED050B10B553ECCF
:10415000102B51EC100B05F04DFD41EC100B10BD78
:10416000000000000000001030380A2801D20120B1
:104170007047002070477047FEB506460D46002484
:10418000684601F0B3FE00229FED1B1A6B46012129
:1041900056F8220055F82270C01B00D5404200EEB0
:1041A000100A03EB8200B8EEC00AD0ED000A20EE40
:1041B000010AF5EEC00AF1EE10FA0DD0C0EE201A99
:1041C000B7EE000A0D4F31EEC00AB0EEC00A10EE95
:1041D000100AB84207DC09E010EE100A084F384414
:1041E000084FB84202D301FA02F00443521C032ADA
:1041F000CEDB2046FEBD000000008037295C0F3E6C
:10420000666666C19A99D90008B500268DF80060E7
:1042100015A001F0CFF81A4C1A4D4FF0FF380127C6
:1042200042466946E86C04F081FE0128F8D19DF809
:10423000000020B1012805D002280FD004E0C4F806
:10424000A06201E0C4F8A07200231A461946E86D86
:1042500004F05CFD642001F077F8E1E7C4F8A07297
:10426000642001F071F8EAE76170705F7461736B4C
:104270005F6265657020737563636573730D0A0013
:10428000008042420000002039A001F093F8404C29
:104290004FF0FF36102532463E49E06B04F046FEF3
:1042A0000146012803D03C4801F084F8F3E739497E
:1042B0003AA001F07FF83BA13648FCF793FA10B121
:1042C0004FF4807016E03AA13248FCF78BFA10B137
:1042D0004FF400700EE03AA12E48FCF783FA10B1BB
:1042E0004FF4806006E03AA12A48FCF77BFA18B147
:1042F0004FF40060206336E038A12648FCF772FADC
:1043000000282FD137A12348FCF76CFA08B101200F
:1043100021E035A11F48FCF765FA08B102201AE038
:1043200033A11C48FCF75EFA08B1202013E034A149
:104330001848FCF757FA08B140200CE034A11548A2
:10434000FCF750FA08B1042005E033A11148FCF74E
:1043500049FA10B10820606305E020A10D48FCF780
:1043600041FA00B1656314210A48FCF7E8FA92E7C4
:104370006170705F7461736B5F626C7565746F6F91
:10438000746820737563636573730D0A0000000021
:10439000000000203403002024BE000825730D0A0D
:1043A0000000000061766F69645F6D6F64652300D3
:1043B0006D616E75616C5F6D6F6465230000000058
:1043C000666F6C6C6F775F6D6F6465230000000033
:1043D00073746F705F6D6F646523000073746F702A
:1043E0002300000075702300646F776E23000000C7
:1043F0006F726967696E5F6C656674230000000008
:104400006F726967696E5F72696768742300000084
:104410006C6566742300000072696768742300008D
:104420008EB0002002900390049005900690044600
:1044300007901FA000F0BEFF41F2707502A800F0C7
:10444000EFFFA04230D19DF809109DF80800CDE99A
:1044500000019DF80B309DF80A201DA104A8FCF76F
:1044600011F805208DF8200008208DF82100022089
:104470008DF8220004A8099010208DF82800194812
:104480000023642208A9806C04F040FC0146012846
:1044900002D015A000F08EFF04A922A000F08AFF30
:1044A000284603F0ABFFC9E7214623A0F6E700004A
:1044B0005B6170705F7461736B5F6468745D2063CF
:1044C000726561746520737563636573730D0A00AB
:1044D000543A253032642E25642C483A2530326413
:1044E0002E256400000000205B6170705F746173B2
:1044F0006B5F6468745D2078517565756553656E92
:1045000064206F6C656420737472696E67206572D5
:10451000726F7220636F64652069732025640D0AD1
:10452000000000005B6170705F7461736B5F6468B2
:10453000745D2025730D0A005B6572726F725D20D9
:1045400025640D0A0000000008B500208DF8000069
:104550000DA000F02FFF134C4FF0FF352A4669469F
:10456000606C04F0E3FC0128F8D19DF800000028FD
:10457000F4D001F041FFA06300231A461946206ED3
:1045800004F0C4FBEAE700006170705F7461736B54
:104590005F68637372303420737563636573730D82
:1045A0000A000000000000202DE9FC41012004F079
:1045B0002EFB924C2065012004F029FB606500224F
:1045C0001421042004F035FBE063002201210420C3
:1045D00004F02FFB206400220121042004F029FBB9
:1045E000606400220121042004F023FBE064002227
:1045F0001421102004F01DFBA0640021FF2004F012
:10460000E9FAA0650021FF2004F0E4FA2066002109
:10461000FF2004F0DFFAE06504F082F9606604F13F
:1046200014000625CDE900500023802274A17648AD
:1046300004F00EFE04F12400CDE900500023802296
:1046400072A1734804F004FE04F128000726CDE9A6
:104650000060002380226FA1704804F0F9FD04F18E
:104660000800CDE90050002380226DA16E4804F0BF
:10467000EFFD04F10C00CDE900604FF4007700235A
:104680003A466AA16B4804F0E3FD04F11000CDE95D
:1046900000600023802268A1694804F0D9FD04F17C
:1046A0001800CDE900500023802266A1684804F07C
:1046B000CFFD04F11C00CDE9006000233A4665A15E
:1046C000674804F0C5FD04F12000CDE90050002347
:1046D0003A4664A1654804F0BBFD04F12C00CDE925
:1046E000005000233A4662A1634804F0B1FD6348DC
:1046F000012300901A464FF47A7161A004F07CFF08
:10470000206004F0DFFD02460020034600900121F6
:10471000206804F0BFFF1E2001F0F4FEFEF76EF8E3
:10472000FEF72EF85A480021009008238022084600
:10473000FEF743F84FF4FA6003F060FEFEF720F84E
:10474000002211462020FEF713F90122002130201B
:10475000FEF70EF9022200214020FEF709F903229C
:1047600000215020FEF704F910234AA20221184626
:10477000FEF76AF9042202214020FEF7F9F805222B
:1047800002215020FEF7F4F8062202216020FEF7F5
:10479000EFF8102341A204212020FEF755F940F63E
:1047A000B83003F02BFEFDF7EBFF4FF4E13000F0E3
:1047B00049FD7D20FEF7FEF901281DD03AA003F047
:1047C000CFFCFEF7A7F9FDF731FD00F00DFD03F07A
:1047D000D1FB01F0D9FD00F005FEFDF777FE02F0F8
:1047E0002DF803F0A5FAFDF78BFD01F06DFEBDE895
:1047F000FC41002003F028BE30A0E0E700000020CC
:104800006265657000000000094200087274630070
:1048100055500008646874313100000021440008DC
:104820007367393000000000655100086F6C6564E3
:1048300000000000A54F0008686373723034000068
:1048400049450008626C7565746F6F7468000000FC
:10485000894200086C3239386E5F776865656C0094
:10486000D14800086D70753630353000ED4D0008C8
:104870006D66726335323200B54B00082580000842
:104880004175746F52656C6F616454696D65720037
:10489000FEA30008475A3231333200003230323141
:1048A0002F382F31380000006E6F726D616C2072EE
:1048B00065736574206370750D0A0000697764671D
:1048C000207265736574206370750D0A0000000026
:1048D0001CB500278DF800708DF80470A5A000F0BD
:1048E00069FDAC4EAC4DAD4C4FF001084FF0FF3BB5
:1048F000306BB0F5807F23D0306BB0F5806F7DD00A
:10490000306BB0F5007F7AD0C5F8B082C4F89082E1
:10491000C4F8B882C4F880825A208DF800000023C1
:104920001A466946306C04F0F1F95946B06D04F04E
:1049300099FB9BA000F03EFD0A2000F005FDD7E7A3
:104940008DF8048000231A4601A9706C04F0DEF98A
:10495000D9465946306E04F085FBB06BFA2878D200
:10496000C5F8B082C4F89072C4F8B882C4F88072F6
:104970004FF4617004F5207400F0E6FCC5F8B082D5
:10498000C4F81080C4F83880C4F80080AA208DF8DC
:10499000000000231A466946A4F52074306C04F028
:1049A000B5F9CB464946B06D04F05CFB8DF8048048
:1049B00000231A4601A9706C04F0A8F95946306E1C
:1049C00004F050FBD6F838A08DF8007000231A468A
:1049D0006946306C04F09AF95946B06D04F042FB18
:1049E000462000F0B1FC8DF8048000231A4601A98E
:1049F000706C04F08BF95946306E01E02AE063E0F8
:104A000004F030FBD6F838905A208DF800000023CF
:104A10001A466946306C04F079F95946B06D04F0D5
:104A200021FBCA4508D9C5F8B082C4F89072C4F811
:104A3000B872C4F8808207E0C5F8B072C4F89082FA
:104A4000C4F8B882C4F880724FF4FA7000F07CFCAD
:104A500072E760E08DF8048000231A4601A9706CAB
:104A600004F054F95946306E04F0FCFAB06B4FF480
:104A70007A73984217D8B16B30464FF4C87291429E
:104A80000BD3816B994208D2C5F8B072C4F89082FA
:104A9000C4F8B872C4F880824EE7816B914209D2A3
:104AA000816BC82906D3C5F8B082C4F89082C4F8D7
:104AB000B882EFE7806BC828CAD2C5F8B082C4F8C4
:104AC0009072C4F8B8821BE0706B10281BD0706B1A
:104AD000012820D0706B022826D0706B042829D0C2
:104AE000706B08282FD0706B20283BD0706B40284B
:104AF000AED1C5F8B0724046C4F89082C4F8B8028E
:104B0000C4F8807218E74046C5F8B082C4F89082B5
:104B1000C4F8B88205E0C5F8B0724046C4F8908287
:104B200025E0C4F8800207E74046C5F8B082C4F823
:104B30009072E3E7C5F8B082C4F89072C4F8B87216
:104B4000C4F8808207E0C5F8B072C4F89082C4F857
:104B5000B882C4F880724FF4FA7000F0F5FBC6F822
:104B60003480E9E64046C5F8B082C4F89072C4F8D3
:104B7000B872D6E76170705F7461736B5F6C3239C5
:104B8000386E5F776865656C2073756363657373F2
:104B90000D0A0000000000200080424200804142D7
:104BA000B6E6BBFABBD8B5BDB3F5CABCCEBBD6C35F
:104BB0000D0A00008EB000270397049705970B9706
:104BC0000C978DF834700226594C5A4D40F22558F6
:104BD0004FF0FF39FDF794FB03A95220FDF7B5FB19
:104BE00000286BD104A8FDF75DFB9DF812009DF82D
:104BF00014209DF813108DE807009DF811309DF8E2
:104C000010204DA10BA8FBF73DFC0BA950A000F014
:104C1000D1FB51A10BA8FBF7E5FD00284FD0606A3E
:104C200003F0D4FDA06A03F0D1FDA06803F0CEFD2F
:104C3000206903F0CBFDA06903F0C8FDE06903F033
:104C4000C5FD206A03F0C2FD00212846FEF78EFC58
:104C5000002241462846FEF7B9FC07208DF81800CF
:104C600028208DF8190032208DF8280008208DF8B2
:104C700029003C488DF81A700990FDF781FD00234A
:104C8000642206A9A06C04F041F80146012802D074
:104C900035A000F08FFB8DF8346000231A460DA973
:104CA000E06C04F033F80146012803D03DA000F089
:104CB00081FB8FE74946E06D04F0D4F933E048A169
:104CC0000BA8FBF78FFD70B3FDF75AFD8DF834602C
:104CD00000231A460DA9E06C04F018F801460128DB
:104CE000E4D14946E06D04F0BDF9606A03F0F8FCD8
:104CF000A06A03F0F5FCA06803F0F2FC206903F061
:104D0000EFFCA06903F0ECFCE06903F0E9FC206A29
:104D100003F0E6FC01212846FEF728FC012241466B
:104D20002846FEF753FC4FF47A7000F00DFB51E774
:104D3000000000200048004025303258253032580D
:104D400025303258253032582530325800000000C6
:104D500025730D0A000000003436323536424146D4
:104D6000413700006EA200085B6170705F74617370
:104D70006B5F6B65795D2078517565756553656E00
:104D800064206F6C6564207069637475726520655A
:104D900072726F7220636F64652069732025640DE1
:104DA0000A0000005B6170705F7461736B5F6D700F
:104DB00075363035305D2078517565756553656E93
:104DC0006420626565705F737461206572726F72D2
:104DD00020636F64652069732025640D0A0000005C
:104DE00043394633303334443734000092B0202105
:104DF0006846FBF7A4FD39A000F0DCFA3E4E3F4FB9
:104E00003F4C00254FF0FF3810AA0FA90EA801F063
:104E100063FC002852D19DED100AB5EEC00AF1EEF8
:104E200010FA09DD10EE100A05F0A4F941EC100BA0
:104E300034A153EC102B0FE0B5EEC00AF1EE10FADE
:104E40000DD2B1EE400A10EE100A05F093F941ECD4
:104E5000100B30A153EC102B6846FBF713FB052019
:104E60008DF820008DF8215004208DF822001020AC
:104E7000CDF824D08DF8280000231A4608A9A06C8C
:104E800003F044FF0146012802D027A000F092FA67
:104E90000F98B04206D2B84204DA0E98B04201D25E
:104EA000B8420FDB01208DF834000DE02EA000F099
:104EB00081FAA9E74146E06D04F0D4F8642000F0DF
:104EC00043FAA1E78DF8345000231A460DA9E06C8F
:104ED00003F01CFF01460128ECD0E7E76170705F2A
:104EE0007461736B5F6D7075363035302073756328
:104EF000636573730D0A0000000070C20000704209
:104F0000000000207475726E206C6566743A25345A
:104F10002E3166007475726E2072696768743A2566
:104F2000342E3166000000005B6170705F74617345
:104F30006B5F6D7075363035305D207851756575F5
:104F40006553656E64206F6C656420737472696E5E
:104F500067206572726F7220636F646520697320C9
:104F600025640D0A000000005B6170705F7461735E
:104F70006B5F6D7075363035305D207851756575B5
:104F80006553656E6420626565705F73746120654A
:104F900072726F7220636F64652069732025640DDF
:104FA0000A00000086B019A000F004FA1D4C4FF072
:104FB000FF352A4601A9A06C03F0B8FF0128F8D1FB
:104FC0009DF80400052805D007280DD016A000F094
:104FD000F1F9EEE79DF80C309DF806109DF80500FC
:104FE000029AFDF731FDE4E7049800909DF8061061
:104FF0009DF815009DF814200844C3B29DF80500E3
:105000000244D2B2FDF7D9FBD3E700006170705FB4
:105010007461736B5F6F6C65642073756363657334
:10502000730D0A00000000205B6170705F74617393
:105030006B5F6F6C65645D206F6C65642063747278
:105040006C20636F646520697320696E76616C699A
:10505000640D0A008CB000240194029403941FA0F4
:10506000049400F0A7F9254D661E4FF48057009672
:10507000002301223946686E03F0AEFCC004F6D569
:105080000AA90120FDF750FE9DF82A0000909DF826
:1050900029309DF828201AA101A8FBF7F3F9052073
:1050A0008DF8140008208DF8150001A80690102036
:1050B0008DF816408DF81C000023642205A9A86C09
:1050C00003F024FE0146012802D012A000F072F97C
:1050D00001A91FA000F06EF9C9E700005B617070C4
:1050E0005F7461736B5F7274635D2063726561747A
:1050F0006520737563636573730D0A0000000020FB
:1051000052756E3A20253032783A253032783A2579
:10511000303278005B6170705F7461736B5F7274C2
:10512000635D2078517565756553656E64206F6C9D
:10513000656420737472696E67206572726F722085
:10514000636F64652069732025640D0A0000000008
:105150005B6170705F7461736B5F7274635D202557
:10516000730D0A0008B500208DF8000013A000F0B0
:1051700021F9184C4FF0FF354FF47A762A466946EC
:10518000206C03F0D3FE0128F8D19DF80010AA2965
:1051900003D021B15A2904D009E0AA2002E000205E
:1051A00000E05A2002F0CCFE304600F0CDF800239B
:1051B0001A461946A06D03F0A9FDDFE76170705F24
:1051C0007461736B5F7367393020737563636573E4
:1051D000730D0A000000002010B541EC100BFEF723
:1051E000AFFC51EC100B10BD70B501212020FDF774
:1051F0006DFC0D484FF480740121046001710022A0
:10520000827103214171094DC27101462846FCF7A4
:10521000F5FD002221462846FCF73EFEBDE8704021
:1052200003A0FBF723B90000540200200014024041
:10523000626565705F636F6E666967206F6B0D0AEC
:1052400000000000F0B5074687B001210220FDF7FD
:105250003DFC01218804FDF745FC254E07220A216B
:105260003046FCF707FE07220B213046FCF702FE12
:105270004FF44060049002208DF814008DF8150062
:1052800000248DF8164001258DF8175004A93046EA
:10529000FCF7B4FDADF808400C20164EADF8044004
:1052A000ADF80A000097ADF80640ADF80C4069462D
:1052B0003046FEF7A3F901213046FEF757F90122E7
:1052C00040F225513046FEF781F927208DF818006D
:1052D00005208DF819008DF81A408DF81B5006A88E
:1052E000FDF712FA04A0FBF7C1F807B0F0BD00000B
:1052F0000004024000480040626C7565746F6F7472
:10530000685F636F6E666967206F6B0D0A0000004F
:1053100010B504460420FDF7A3FF0A484FF47A7144
:10532000047014FB01F1012242804FF0E020026979
:1053300042F0020202614161016941F00101016133
:1053400010BD0000A602002070B5044603F0ACFFBB
:1053500001280CD0094D6888844203D3B4FBF0F0D7
:1053600003F04CF86888B4FBF0F100FB11444FF4F3
:105370007A706043BDE8704000F002B8A6020020D9
:1053800070B54FF0E02500216C69094AAB691278CD
:105390005043AA699A42FCD002D2A3EB020302E076
:1053A000A4EB02063344194413468142F1D370BD85
:1053B000A60200200FB44FF0FF3170B5084D05ACC8
:1053C000286D03F04FFE21460498FBF749F80023AF
:1053D0001A461946286D03F099FC70BC5DF814FB61
:1053E0000000002010B501214020FDF76FFB0948A7
:1053F0004FF4007101240160047184710321417133
:105400000021C17101460448FCF7F8FC0348C0F8CC
:10541000A44210BD7C00002000180240000043425E
:105420002DE9F04780460024FDF730FB464D002073
:10543000C5F8A4021420FFF787FF4FF0010AC5F852
:10544000A4A21E20FFF79CFFFCF7DCFE4FF47A6657
:1054500009E00120FFF794FF641CB44203D94FF028
:10546000FF30BDE8F087D5F824020128F1D00024F0
:1054700008E00120FFF784FF641C642C02D36FF066
:105480000100EEE7D5F824020028F2D0002408E05D
:105490000120FFF775FF641C642C02D96FF0020035
:1054A000DFE7D5F824020128F2D00027A94600261C
:1054B0000725002408E00120FFF762FF641C642C2C
:1054C00002D96FF00300CCE7D9F824020028F2D00B
:1054D0002820FFF755FFD9F8240290B10AFA05F009
:1054E0003043C6B2002408E00120FFF749FF641CE6
:1054F000642C02D96FF00400B3E7D9F82402012824
:10550000F2D06D1E6DB2002DD3DA08F807607F1C53
:105510007FB2052FCBDB3220FFF732FF98F8001067
:1055200098F8010098F80220014498F8030010440C
:10553000084498F80410C0B2814201D1002090E7DD
:105540006FF005008DE700000000434208B560B130
:1055500020208DF8000028208DF8010030208DF8E3
:10556000020038208DF8030004E0A32204216846DD
:10557000FBF7BBF96A46042140F69E2001F076FF56
:1055800001F03AFC08BD00003EB5044602208DF84B
:105590000000CA208DF80100E3208DF802000920E8
:1055A0008DF803006A460421682001F05FFFA32004
:1055B0008DF80000610609D5C0218DF80110C821C1
:1055C0008DF80210C2218DF8031005E08DF801005E
:1055D0008DF802008DF8030014F4C07F09D0C421B7
:1055E0008DF80410CC218DF80510C6218DF8061019
:1055F00005E08DF804008DF805008DF806008DF8A3
:1056000008008DF807008DF809006A460A2140F667
:10561000A72001F02BFFA0074FF0D80503D02020D2
:105620008DF8000001E08DF800506A46012140F637
:10563000B62001F01BFFA00601D5012000E00020EC
:1056400000F090F814F4C07F1ED0E0050AD5B22017
:105650008DF800008B208DF80100B6208DF8020037
:105660009B2009E0B0208DF8000080208DF801001B
:10567000B4208DF8020090208DF803006A460421C2
:1056800040F6A22001F0F2FEE0074FF40B6323D0B6
:10569000F8208DF800006A460121184601F0E6FE68
:1056A000FA21072000F03CFB072000F007FB012057
:1056B00000F024FB642000F0E3FB4FF4FA7000F0EC
:1056C000EFFBC821254800F0C1FA282000F0D6FAE7
:1056D0000A2000F0E3FA06E08DF800506A46012146
:1056E000184601F0C3FEA00703D5D9208DF80000AD
:1056F00001E08DF800506A46012140F23D7001F052
:10570000B5FE600701D5012000E0002000F046F85A
:10571000E00601D5012000E00020FFF717FF104D43
:1057200044F00800688101F067FB0020A873600660
:1057300001D50620A87314F4C07F02D0A87B801D79
:10574000A87314F0140F02D0A87B1030A873A00720
:1057500002D0A87B001DA87300203EBD09E3CA0249
:10576000FC0500200EB54FF4976308B105A000E0DA
:1057700007A007C88DE807006A460921184601F00E
:1057800075FE0EBDB8AAB38DB4980D355D0000004E
:10579000B8AAAAAAB088C3C5C700000008B560B1FE
:1057A000C0208DF80000C2208DF80100C4208DF8C3
:1057B0000200C6208DF8030004E08B220421684615
:1057C000FBF793F86A46042140F6982001F04EFE5C
:1057D00001F012FB08BD0000C8234FF480620249AB
:1057E00040F6F63001F0E8B968B000082DE9FF4F47
:1057F00089B01646DDE916520024DFF838810F46DD
:1058000081462C80A24698F80E00694601F082FA83
:105810004FF0FF3B18B158460DB0BDE8F08FB8F817
:105820000A0010F0140F3ED0009909BA21F0FF0CC5
:105830009DF803104CEA010CC6F800C0019909BAA2
:1058400021F0FF039DF807100B43736002999DF848
:105850000B2009BA21F0FF011143B160039A9DF8B2
:105860000F4012BA22F0FF022243F26010241B14F0
:1058700009144FEA2C46121416FB06F613FB0363B9
:1058800011FB01F112FB02111944A1F17061B1F198
:10589000007F04D901F0B0FAA5F800A0BBE7298881
:1058A00041F48071298041066A460ED51119A41D64
:1058B0000B885BBA3B804B885BBA7B80898849BA8E
:1058C000B980298841F00801298010F4C07F11D0E7
:1058D0001119A41D0B885BBAA9F800304B885BBA7C
:1058E000A9F80230898849BAA9F80410298841F03A
:1058F00070012980800718D01444E07800F0C005BA
:1059000000F03F016078C00707D0C80801F0070128
:10591000D8F80020491C02B190476078000704D5F0
:10592000D8F8041009B1A80988470C9800F0A6FE21
:10593000002071E7FC0500202DE9FF41044603A883
:1059400000F0EAFFBDF80C00420CC3032F480189A8
:1059500001F003004D0754F8200000D54042C1F388
:10596000C1058E0654F8255000D56D42C1F381164D
:10597000C90554F8264000D56442A0FB0367C1174F
:1059800001FB037100FB0210810041EA9670A5FB48
:105990000367E91701FB037105FB02118D0045EA5E
:1059A0009671A4FB0367E51705FB037304FB023242
:1059B000930043EA9672030E8DF80030030C8DF8C5
:1059C0000130030A8DF802308DF80300080E8DF8BF
:1059D0000400080C8DF80500080A8DF80600100E6A
:1059E0008DF80800100C8DF80900100A8DF80A00D7
:1059F0008DF807108DF80B206A460C214FF42570A6
:105A000001F034FD04B0BDE8F0810000FC05002089
:105A100030B5044613A185B007C98DE807004FF0E3
:105A2000FF35C82C16D8C820B0FBF4F1491E080A6F
:105A30008DF80C008DF80D1003AA022140F21620FB
:105A400001F014FD30B96A460C2140F6C12001F086
:105A50000DFD10B1284605B030BD054884810020F9
:105A6000F9E70000FEF2ABC4AAF1DFDFBBAFDFDF76
:105A7000FC050020F8B53049098901F0030250F80F
:105A800022404A0700D56442C1F3C10250F82230D7
:105A90008A0600D55B42C1F3811250F82220C80566
:105AA00000D55242254984FB0140850045EA9470A7
:105AB00083FB014382FB0121950F45EA8105010E1D
:105AC0008DF80010010C8DF80110010A8DF80210FC
:105AD000A40F8DF8030044EA83046A4604214FF4BE
